{
  "_format": "hh-sol-artifact-1",
  "contractName": "betApp",
  "sourceName": "contracts/betApp.sol",
  "abi": [
    {
      "inputs": [
        {
          "internalType": "string",
          "name": "side1",
          "type": "string"
        },
        {
          "internalType": "string",
          "name": "side2",
          "type": "string"
        },
        {
          "internalType": "string",
          "name": "sport",
          "type": "string"
        }
      ],
      "name": "addFixture",
      "outputs": [],
      "stateMutability": "nonpayable",
      "type": "function"
    },
    {
      "inputs": [],
      "name": "betCount",
      "outputs": [
        {
          "internalType": "uint256",
          "name": "",
          "type": "uint256"
        }
      ],
      "stateMutability": "view",
      "type": "function"
    },
    {
      "inputs": [
        {
          "internalType": "uint256",
          "name": "",
          "type": "uint256"
        }
      ],
      "name": "bets",
      "outputs": [
        {
          "internalType": "uint256",
          "name": "id",
          "type": "uint256"
        },
        {
          "internalType": "address",
          "name": "better",
          "type": "address"
        },
        {
          "internalType": "uint256",
          "name": "option",
          "type": "uint256"
        },
        {
          "internalType": "uint256",
          "name": "payment",
          "type": "uint256"
        },
        {
          "internalType": "uint256",
          "name": "balance",
          "type": "uint256"
        }
      ],
      "stateMutability": "view",
      "type": "function"
    },
    {
      "inputs": [
        {
          "internalType": "string",
          "name": "username",
          "type": "string"
        },
        {
          "internalType": "string",
          "name": "email",
          "type": "string"
        },
        {
          "internalType": "string",
          "name": "firstName",
          "type": "string"
        },
        {
          "internalType": "string",
          "name": "lastName",
          "type": "string"
        },
        {
          "internalType": "uint256",
          "name": "balance",
          "type": "uint256"
        }
      ],
      "name": "createUser",
      "outputs": [],
      "stateMutability": "nonpayable",
      "type": "function"
    },
    {
      "inputs": [
        {
          "internalType": "uint256",
          "name": "id",
          "type": "uint256"
        },
        {
          "internalType": "uint256",
          "name": "result",
          "type": "uint256"
        }
      ],
      "name": "endFixture",
      "outputs": [],
      "stateMutability": "nonpayable",
      "type": "function"
    },
    {
      "inputs": [],
      "name": "fixtureCount",
      "outputs": [
        {
          "internalType": "uint256",
          "name": "",
          "type": "uint256"
        }
      ],
      "stateMutability": "view",
      "type": "function"
    },
    {
      "inputs": [
        {
          "internalType": "uint256",
          "name": "",
          "type": "uint256"
        }
      ],
      "name": "fixtures",
      "outputs": [
        {
          "internalType": "uint256",
          "name": "id",
          "type": "uint256"
        },
        {
          "internalType": "string",
          "name": "side1",
          "type": "string"
        },
        {
          "internalType": "string",
          "name": "side2",
          "type": "string"
        },
        {
          "internalType": "string",
          "name": "sport",
          "type": "string"
        },
        {
          "internalType": "bool",
          "name": "results_announced",
          "type": "bool"
        },
        {
          "internalType": "uint256",
          "name": "result",
          "type": "uint256"
        },
        {
          "internalType": "uint256",
          "name": "side1pool",
          "type": "uint256"
        },
        {
          "internalType": "uint256",
          "name": "side2pool",
          "type": "uint256"
        },
        {
          "internalType": "bool",
          "name": "active",
          "type": "bool"
        }
      ],
      "stateMutability": "view",
      "type": "function"
    },
    {
      "inputs": [],
      "name": "getBalance",
      "outputs": [
        {
          "internalType": "uint256",
          "name": "",
          "type": "uint256"
        }
      ],
      "stateMutability": "view",
      "type": "function"
    },
    {
      "inputs": [],
      "name": "getUser",
      "outputs": [
        {
          "components": [
            {
              "internalType": "string",
              "name": "username",
              "type": "string"
            },
            {
              "internalType": "string",
              "name": "email",
              "type": "string"
            },
            {
              "internalType": "string",
              "name": "firstName",
              "type": "string"
            },
            {
              "internalType": "string",
              "name": "lastname",
              "type": "string"
            },
            {
              "internalType": "uint256",
              "name": "balance",
              "type": "uint256"
            }
          ],
          "internalType": "struct betApp.User",
          "name": "",
          "type": "tuple"
        }
      ],
      "stateMutability": "view",
      "type": "function"
    },
    {
      "inputs": [
        {
          "internalType": "uint256",
          "name": "id",
          "type": "uint256"
        },
        {
          "internalType": "uint256",
          "name": "option",
          "type": "uint256"
        }
      ],
      "name": "placeBet",
      "outputs": [],
      "stateMutability": "payable",
      "type": "function"
    },
    {
      "inputs": [
        {
          "internalType": "address",
          "name": "",
          "type": "address"
        }
      ],
      "name": "users",
      "outputs": [
        {
          "internalType": "string",
          "name": "username",
          "type": "string"
        },
        {
          "internalType": "string",
          "name": "email",
          "type": "string"
        },
        {
          "internalType": "string",
          "name": "firstName",
          "type": "string"
        },
        {
          "internalType": "string",
          "name": "lastname",
          "type": "string"
        },
        {
          "internalType": "uint256",
          "name": "balance",
          "type": "uint256"
        }
      ],
      "stateMutability": "view",
      "type": "function"
    },
    {
      "inputs": [],
      "name": "withdraw",
      "outputs": [],
      "stateMutability": "payable",
      "type": "function"
    }
  ],
  "bytecode": "0x608060405260008055600060015534801561001957600080fd5b50611fd3806100296000396000f3fe6080604052600436106100a75760003560e01c80634afe62b5116100645780634afe62b51461019f5780634d778448146101bb57806367bfef67146101e4578063832880e714610229578063a87430ba14610254578063cf09449714610295576100a7565b8063066a2336146100ac57806312065fe0146100d557806322af00fa1461010057806339b3e8fd146101415780633ccfd60b1461016c5780633f18eb3e14610176575b600080fd5b3480156100b857600080fd5b506100d360048036038101906100ce9190611436565b6102c0565b005b3480156100e157600080fd5b506100ea6106d8565b6040516100f79190611485565b60405180910390f35b34801561010c57600080fd5b50610127600480360381019061012291906114a0565b610722565b60405161013895949392919061150e565b60405180910390f35b34801561014d57600080fd5b50610156610788565b6040516101639190611485565b60405180910390f35b61017461078e565b005b34801561018257600080fd5b5061019d600480360381019061019891906116a7565b6108b3565b005b6101b960048036038101906101b49190611436565b6109f8565b005b3480156101c757600080fd5b506101e260048036038101906101dd919061174e565b610bd0565b005b3480156101f057600080fd5b5061020b600480360381019061020691906114a0565b610ca8565b604051610220999897969594939291906118d3565b60405180910390f35b34801561023557600080fd5b5061023e610eb8565b60405161024b9190611a59565b60405180910390f35b34801561026057600080fd5b5061027b60048036038101906102769190611aa7565b611161565b60405161028c959493929190611ad4565b60405180910390f35b3480156102a157600080fd5b506102aa6113b7565b6040516102b79190611485565b60405180910390f35b6000600283815481106102d6576102d5611b43565b5b906000526020600020906009020160080160009054906101000a900460ff16905080156106d357816002848154811061031257610311611b43565b5b9060005260206000209060090201600501819055506000806000600286815481106103405761033f611b43565b5b906000526020600020906009020160060154905060006002878154811061036a57610369611b43565b5b906000526020600020906009020160070154905060005b60015481101561068f576003818154811061039f5761039e611b43565b5b9060005260206000209060050201600201549450600381815481106103c7576103c6611b43565b5b906000526020600020906005020160030154935084871480156103ea5750600185145b1561052d57838285856103fd9190611bd0565b6104079190611c01565b6104119190611c43565b6003828154811061042557610424611b43565b5b9060005260206000209060050201600401819055506000600382815481106104505761044f611b43565b5b9060005260206000209060050201600301819055506003818154811061047957610478611b43565b5b90600052602060002090600502016004015460046000600384815481106104a3576104a2611b43565b5b906000526020600020906005020160010160009054906101000a900473ffffffffffffffffffffffffffffffffffffffff1673ffffffffffffffffffffffffffffffffffffffff1673ffffffffffffffffffffffffffffffffffffffff16815260200190815260200160002060040160008282546105219190611c43565b9250508190555061067c565b848714801561053c5750600285145b1561067b578383858461054f9190611bd0565b6105599190611c01565b6105639190611c43565b6003828154811061057757610576611b43565b5b9060005260206000209060050201600401819055506000600382815481106105a2576105a1611b43565b5b906000526020600020906005020160030181905550600381815481106105cb576105ca611b43565b5b90600052602060002090600502016004015460046000600384815481106105f5576105f4611b43565b5b906000526020600020906005020160010160009054906101000a900473ffffffffffffffffffffffffffffffffffffffff1673ffffffffffffffffffffffffffffffffffffffff1673ffffffffffffffffffffffffffffffffffffffff16815260200190815260200160002060040160008282546106739190611c43565b925050819055505b5b808061068790611c77565b915050610381565b506000600288815481106106a6576106a5611b43565b5b906000526020600020906009020160080160006101000a81548160ff021916908315150217905550505050505b505050565b6000600460003373ffffffffffffffffffffffffffffffffffffffff1673ffffffffffffffffffffffffffffffffffffffff16815260200190815260200160002060040154905090565b6003818154811061073257600080fd5b90600052602060002090600502016000915090508060000154908060010160009054906101000a900473ffffffffffffffffffffffffffffffffffffffff16908060020154908060030154908060040154905085565b60005481565b60003390506000600460003373ffffffffffffffffffffffffffffffffffffffff1673ffffffffffffffffffffffffffffffffffffffff1681526020019081526020016000206004015411156108b0578073ffffffffffffffffffffffffffffffffffffffff166108fc600460003373ffffffffffffffffffffffffffffffffffffffff1673ffffffffffffffffffffffffffffffffffffffff168152602001908152602001600020600401549081150290604051600060405180830381858888f19350505050158015610866573d6000803e3d6000fd5b506000600460003373ffffffffffffffffffffffffffffffffffffffff1673ffffffffffffffffffffffffffffffffffffffff168152602001908152602001600020600401819055505b50565b6000604051806101200160405280600054815260200185815260200184815260200183815260200160001515815260200160008152602001600081526020016000815260200160011515815250905060008081548092919061091490611c77565b919050555060028190806001815401808255809150506001900390600052602060002090600902016000909190919091506000820151816000015560208201518160010190816109649190611ecb565b50604082015181600201908161097a9190611ecb565b5060608201518160030190816109909190611ecb565b5060808201518160040160006101000a81548160ff02191690831515021790555060a0820151816005015560c0820151816006015560e082015181600701556101008201518160080160006101000a81548160ff021916908315150217905550505050505050565b600060028381548110610a0e57610a0d611b43565b5b906000526020600020906009020160080160009054906101000a900460ff169050808015610a3c5750600034115b15610bcb5760006040518060a0016040528060015481526020013373ffffffffffffffffffffffffffffffffffffffff1681526020018481526020013481526020016000815250905060016000815480929190610a9890611c77565b919050555060038190806001815401808255809150506001900390600052602060002090600502016000909190919091506000820151816000015560208201518160010160006101000a81548173ffffffffffffffffffffffffffffffffffffffff021916908373ffffffffffffffffffffffffffffffffffffffff160217905550604082015181600201556060820151816003015560808201518160040155505060018303610b83573460028581548110610b5757610b56611b43565b5b90600052602060002090600902016006016000828254610b779190611c43565b92505081905550610bc9565b60028303610bc8573460028581548110610ba057610b9f611b43565b5b90600052602060002090600902016007016000828254610bc09190611c43565b925050819055505b5b505b505050565b60006040518060a0016040528087815260200186815260200185815260200184815260200183815250905080600460003373ffffffffffffffffffffffffffffffffffffffff1673ffffffffffffffffffffffffffffffffffffffff1681526020019081526020016000206000820151816000019081610c509190611ecb565b506020820151816001019081610c669190611ecb565b506040820151816002019081610c7c9190611ecb565b506060820151816003019081610c929190611ecb565b5060808201518160040155905050505050505050565b60028181548110610cb857600080fd5b9060005260206000209060090201600091509050806000015490806001018054610ce190611cee565b80601f0160208091040260200160405190810160405280929190818152602001828054610d0d90611cee565b8015610d5a5780601f10610d2f57610100808354040283529160200191610d5a565b820191906000526020600020905b815481529060010190602001808311610d3d57829003601f168201915b505050505090806002018054610d6f90611cee565b80601f0160208091040260200160405190810160405280929190818152602001828054610d9b90611cee565b8015610de85780601f10610dbd57610100808354040283529160200191610de8565b820191906000526020600020905b815481529060010190602001808311610dcb57829003601f168201915b505050505090806003018054610dfd90611cee565b80601f0160208091040260200160405190810160405280929190818152602001828054610e2990611cee565b8015610e765780601f10610e4b57610100808354040283529160200191610e76565b820191906000526020600020905b815481529060010190602001808311610e5957829003601f168201915b5050505050908060040160009054906101000a900460ff16908060050154908060060154908060070154908060080160009054906101000a900460ff16905089565b610ec06113bd565b600460003373ffffffffffffffffffffffffffffffffffffffff1673ffffffffffffffffffffffffffffffffffffffff1681526020019081526020016000206040518060a0016040529081600082018054610f1a90611cee565b80601f0160208091040260200160405190810160405280929190818152602001828054610f4690611cee565b8015610f935780601f10610f6857610100808354040283529160200191610f93565b820191906000526020600020905b815481529060010190602001808311610f7657829003601f168201915b50505050508152602001600182018054610fac90611cee565b80601f0160208091040260200160405190810160405280929190818152602001828054610fd890611cee565b80156110255780601f10610ffa57610100808354040283529160200191611025565b820191906000526020600020905b81548152906001019060200180831161100857829003601f168201915b5050505050815260200160028201805461103e90611cee565b80601f016020809104026020016040519081016040528092919081815260200182805461106a90611cee565b80156110b75780601f1061108c576101008083540402835291602001916110b7565b820191906000526020600020905b81548152906001019060200180831161109a57829003601f168201915b505050505081526020016003820180546110d090611cee565b80601f01602080910402602001604051908101604052809291908181526020018280546110fc90611cee565b80156111495780601f1061111e57610100808354040283529160200191611149565b820191906000526020600020905b81548152906001019060200180831161112c57829003601f168201915b50505050508152602001600482015481525050905090565b600460205280600052604060002060009150905080600001805461118490611cee565b80601f01602080910402602001604051908101604052809291908181526020018280546111b090611cee565b80156111fd5780601f106111d2576101008083540402835291602001916111fd565b820191906000526020600020905b8154815290600101906020018083116111e057829003601f168201915b50505050509080600101805461121290611cee565b80601f016020809104026020016040519081016040528092919081815260200182805461123e90611cee565b801561128b5780601f106112605761010080835404028352916020019161128b565b820191906000526020600020905b81548152906001019060200180831161126e57829003601f168201915b5050505050908060020180546112a090611cee565b80601f01602080910402602001604051908101604052809291908181526020018280546112cc90611cee565b80156113195780601f106112ee57610100808354040283529160200191611319565b820191906000526020600020905b8154815290600101906020018083116112fc57829003601f168201915b50505050509080600301805461132e90611cee565b80601f016020809104026020016040519081016040528092919081815260200182805461135a90611cee565b80156113a75780601f1061137c576101008083540402835291602001916113a7565b820191906000526020600020905b81548152906001019060200180831161138a57829003601f168201915b5050505050908060040154905085565b60015481565b6040518060a0016040528060608152602001606081526020016060815260200160608152602001600081525090565b6000604051905090565b600080fd5b600080fd5b6000819050919050565b61141381611400565b811461141e57600080fd5b50565b6000813590506114308161140a565b92915050565b6000806040838503121561144d5761144c6113f6565b5b600061145b85828601611421565b925050602061146c85828601611421565b9150509250929050565b61147f81611400565b82525050565b600060208201905061149a6000830184611476565b92915050565b6000602082840312156114b6576114b56113f6565b5b60006114c484828501611421565b91505092915050565b600073ffffffffffffffffffffffffffffffffffffffff82169050919050565b60006114f8826114cd565b9050919050565b611508816114ed565b82525050565b600060a0820190506115236000830188611476565b61153060208301876114ff565b61153d6040830186611476565b61154a6060830185611476565b6115576080830184611476565b9695505050505050565b600080fd5b600080fd5b6000601f19601f8301169050919050565b7f4e487b7100000000000000000000000000000000000000000000000000000000600052604160045260246000fd5b6115b48261156b565b810181811067ffffffffffffffff821117156115d3576115d261157c565b5b80604052505050565b60006115e66113ec565b90506115f282826115ab565b919050565b600067ffffffffffffffff8211156116125761161161157c565b5b61161b8261156b565b9050602081019050919050565b82818337600083830152505050565b600061164a611645846115f7565b6115dc565b90508281526020810184848401111561166657611665611566565b5b611671848285611628565b509392505050565b600082601f83011261168e5761168d611561565b5b813561169e848260208601611637565b91505092915050565b6000806000606084860312156116c0576116bf6113f6565b5b600084013567ffffffffffffffff8111156116de576116dd6113fb565b5b6116ea86828701611679565b935050602084013567ffffffffffffffff81111561170b5761170a6113fb565b5b61171786828701611679565b925050604084013567ffffffffffffffff811115611738576117376113fb565b5b61174486828701611679565b9150509250925092565b600080600080600060a0868803121561176a576117696113f6565b5b600086013567ffffffffffffffff811115611788576117876113fb565b5b61179488828901611679565b955050602086013567ffffffffffffffff8111156117b5576117b46113fb565b5b6117c188828901611679565b945050604086013567ffffffffffffffff8111156117e2576117e16113fb565b5b6117ee88828901611679565b935050606086013567ffffffffffffffff81111561180f5761180e6113fb565b5b61181b88828901611679565b925050608061182c88828901611421565b9150509295509295909350565b600081519050919050565b600082825260208201905092915050565b60005b83811015611873578082015181840152602081019050611858565b60008484015250505050565b600061188a82611839565b6118948185611844565b93506118a4818560208601611855565b6118ad8161156b565b840191505092915050565b60008115159050919050565b6118cd816118b8565b82525050565b6000610120820190506118e9600083018c611476565b81810360208301526118fb818b61187f565b9050818103604083015261190f818a61187f565b90508181036060830152611923818961187f565b905061193260808301886118c4565b61193f60a0830187611476565b61194c60c0830186611476565b61195960e0830185611476565b6119676101008301846118c4565b9a9950505050505050505050565b600082825260208201905092915050565b600061199182611839565b61199b8185611975565b93506119ab818560208601611855565b6119b48161156b565b840191505092915050565b6119c881611400565b82525050565b600060a08301600083015184820360008601526119eb8282611986565b91505060208301518482036020860152611a058282611986565b91505060408301518482036040860152611a1f8282611986565b91505060608301518482036060860152611a398282611986565b9150506080830151611a4e60808601826119bf565b508091505092915050565b60006020820190508181036000830152611a7381846119ce565b905092915050565b611a84816114ed565b8114611a8f57600080fd5b50565b600081359050611aa181611a7b565b92915050565b600060208284031215611abd57611abc6113f6565b5b6000611acb84828501611a92565b91505092915050565b600060a0820190508181036000830152611aee818861187f565b90508181036020830152611b02818761187f565b90508181036040830152611b16818661187f565b90508181036060830152611b2a818561187f565b9050611b396080830184611476565b9695505050505050565b7f4e487b7100000000000000000000000000000000000000000000000000000000600052603260045260246000fd5b7f4e487b7100000000000000000000000000000000000000000000000000000000600052601260045260246000fd5b7f4e487b7100000000000000000000000000000000000000000000000000000000600052601160045260246000fd5b6000611bdb82611400565b9150611be683611400565b925082611bf657611bf5611b72565b5b828204905092915050565b6000611c0c82611400565b9150611c1783611400565b9250828202611c2581611400565b91508282048414831517611c3c57611c3b611ba1565b5b5092915050565b6000611c4e82611400565b9150611c5983611400565b9250828201905080821115611c7157611c70611ba1565b5b92915050565b6000611c8282611400565b91507fffffffffffffffffffffffffffffffffffffffffffffffffffffffffffffffff8203611cb457611cb3611ba1565b5b600182019050919050565b7f4e487b7100000000000000000000000000000000000000000000000000000000600052602260045260246000fd5b60006002820490506001821680611d0657607f821691505b602082108103611d1957611d18611cbf565b5b50919050565b60008190508160005260206000209050919050565b60006020601f8301049050919050565b600082821b905092915050565b600060088302611d817fffffffffffffffffffffffffffffffffffffffffffffffffffffffffffffffff82611d44565b611d8b8683611d44565b95508019841693508086168417925050509392505050565b6000819050919050565b6000611dc8611dc3611dbe84611400565b611da3565b611400565b9050919050565b6000819050919050565b611de283611dad565b611df6611dee82611dcf565b848454611d51565b825550505050565b600090565b611e0b611dfe565b611e16818484611dd9565b505050565b5b81811015611e3a57611e2f600082611e03565b600181019050611e1c565b5050565b601f821115611e7f57611e5081611d1f565b611e5984611d34565b81016020851015611e68578190505b611e7c611e7485611d34565b830182611e1b565b50505b505050565b600082821c905092915050565b6000611ea260001984600802611e84565b1980831691505092915050565b6000611ebb8383611e91565b9150826002028217905092915050565b611ed482611839565b67ffffffffffffffff811115611eed57611eec61157c565b5b611ef78254611cee565b611f02828285611e3e565b600060209050601f831160018114611f355760008415611f23578287015190505b611f2d8582611eaf565b865550611f95565b601f198416611f4386611d1f565b60005b82811015611f6b57848901518255600182019150602085019450602081019050611f46565b86831015611f885784890151611f84601f891682611e91565b8355505b6001600288020188555050505b50505050505056fea26469706673582212208506408e4abcf3922f1b61f89a5138e7899201e44e61722f471924f8c7ef2d1264736f6c63430008110033",
  "linkReferences": {},
  "deployedLinkReferences": {}
}