{
    "_format": "hh-sol-artifact-1",
    "contractName": "betApp",
    "sourceName": "contracts/betApp.sol",
    "abi": [
        {
            "inputs": [
                {
                    "internalType": "address",
                    "name": "",
                    "type": "address"
                }
            ],
            "name": "accounts",
            "outputs": [
                {
                    "internalType": "uint256",
                    "name": "",
                    "type": "uint256"
                }
            ],
            "stateMutability": "view",
            "type": "function"
        },
        {
            "inputs": [
                {
                    "internalType": "string",
                    "name": "side1",
                    "type": "string"
                },
                {
                    "internalType": "string",
                    "name": "side2",
                    "type": "string"
                },
                {
                    "internalType": "string",
                    "name": "sport",
                    "type": "string"
                }
            ],
            "name": "addFixture",
            "outputs": [],
            "stateMutability": "nonpayable",
            "type": "function"
        },
        {
            "inputs": [],
            "name": "betCount",
            "outputs": [
                {
                    "internalType": "uint256",
                    "name": "",
                    "type": "uint256"
                }
            ],
            "stateMutability": "view",
            "type": "function"
        },
        {
            "inputs": [
                {
                    "internalType": "uint256",
                    "name": "",
                    "type": "uint256"
                }
            ],
            "name": "bets",
            "outputs": [
                {
                    "internalType": "uint256",
                    "name": "id",
                    "type": "uint256"
                },
                {
                    "internalType": "address",
                    "name": "better",
                    "type": "address"
                },
                {
                    "internalType": "uint256",
                    "name": "option",
                    "type": "uint256"
                },
                {
                    "internalType": "uint256",
                    "name": "payment",
                    "type": "uint256"
                },
                {
                    "internalType": "uint256",
                    "name": "balance",
                    "type": "uint256"
                }
            ],
            "stateMutability": "view",
            "type": "function"
        },
        {
            "inputs": [
                {
                    "internalType": "uint256",
                    "name": "id",
                    "type": "uint256"
                },
                {
                    "internalType": "uint256",
                    "name": "result",
                    "type": "uint256"
                }
            ],
            "name": "endFixture",
            "outputs": [],
            "stateMutability": "nonpayable",
            "type": "function"
        },
        {
            "inputs": [],
            "name": "fixtureCount",
            "outputs": [
                {
                    "internalType": "uint256",
                    "name": "",
                    "type": "uint256"
                }
            ],
            "stateMutability": "view",
            "type": "function"
        },
        {
            "inputs": [
                {
                    "internalType": "uint256",
                    "name": "",
                    "type": "uint256"
                }
            ],
            "name": "fixtures",
            "outputs": [
                {
                    "internalType": "uint256",
                    "name": "id",
                    "type": "uint256"
                },
                {
                    "internalType": "string",
                    "name": "side1",
                    "type": "string"
                },
                {
                    "internalType": "string",
                    "name": "side2",
                    "type": "string"
                },
                {
                    "internalType": "string",
                    "name": "sport",
                    "type": "string"
                },
                {
                    "internalType": "bool",
                    "name": "results_announced",
                    "type": "bool"
                },
                {
                    "internalType": "uint256",
                    "name": "result",
                    "type": "uint256"
                },
                {
                    "internalType": "uint256",
                    "name": "side1pool",
                    "type": "uint256"
                },
                {
                    "internalType": "uint256",
                    "name": "side2pool",
                    "type": "uint256"
                },
                {
                    "internalType": "bool",
                    "name": "active",
                    "type": "bool"
                }
            ],
            "stateMutability": "view",
            "type": "function"
        },
        {
            "inputs": [],
            "name": "getBalance",
            "outputs": [
                {
                    "internalType": "uint256",
                    "name": "",
                    "type": "uint256"
                }
            ],
            "stateMutability": "view",
            "type": "function"
        },
        {
            "inputs": [
                {
                    "internalType": "uint256",
                    "name": "id",
                    "type": "uint256"
                },
                {
                    "internalType": "uint256",
                    "name": "option",
                    "type": "uint256"
                }
            ],
            "name": "placeBet",
            "outputs": [],
            "stateMutability": "payable",
            "type": "function"
        },
        {
            "inputs": [],
            "name": "withdraw",
            "outputs": [],
            "stateMutability": "payable",
            "type": "function"
        }
    ],
    "bytecode": "0x608060405260008055600060015534801561001957600080fd5b50611705806100296000396000f3fe6080604052600436106100915760003560e01c80633f18eb3e116100595780633f18eb3e146101605780634afe62b5146101895780635e5c06e2146101a557806367bfef67146101e2578063cf0944971461022757610091565b8063066a23361461009657806312065fe0146100bf57806322af00fa146100ea57806339b3e8fd1461012b5780633ccfd60b14610156575b600080fd5b3480156100a257600080fd5b506100bd60048036038101906100b89190610dc8565b610252565b005b3480156100cb57600080fd5b506100d4610664565b6040516100e19190610e17565b60405180910390f35b3480156100f657600080fd5b50610111600480360381019061010c9190610e32565b6106ab565b604051610122959493929190610ea0565b60405180910390f35b34801561013757600080fd5b50610140610711565b60405161014d9190610e17565b60405180910390f35b61015e610717565b005b34801561016c57600080fd5b5061018760048036038101906101829190611039565b610833565b005b6101a3600480360381019061019e9190610dc8565b610978565b005b3480156101b157600080fd5b506101cc60048036038101906101c7919061110c565b610b50565b6040516101d99190610e17565b60405180910390f35b3480156101ee57600080fd5b5061020960048036038101906102049190610e32565b610b68565b60405161021e999897969594939291906111d3565b60405180910390f35b34801561023357600080fd5b5061023c610d78565b6040516102499190610e17565b60405180910390f35b60006002838154811061026857610267611275565b5b906000526020600020906009020160080160009054906101000a900460ff169050801561065f5781600284815481106102a4576102a3611275565b5b9060005260206000209060090201600501819055506000806000600286815481106102d2576102d1611275565b5b90600052602060002090600902016006015490506000600287815481106102fc576102fb611275565b5b906000526020600020906009020160070154905060005b60015481101561061b576003818154811061033157610330611275565b5b90600052602060002090600502016002015494506003818154811061035957610358611275565b5b9060005260206000209060050201600301549350848714801561037c5750600185145b156104bc578382858561038f9190611302565b6103999190611333565b6103a39190611375565b600382815481106103b7576103b6611275565b5b9060005260206000209060050201600401819055506000600382815481106103e2576103e1611275565b5b9060005260206000209060050201600301819055506003818154811061040b5761040a611275565b5b906000526020600020906005020160040154600460006003848154811061043557610434611275565b5b906000526020600020906005020160010160009054906101000a900473ffffffffffffffffffffffffffffffffffffffff1673ffffffffffffffffffffffffffffffffffffffff1673ffffffffffffffffffffffffffffffffffffffff16815260200190815260200160002060008282546104b09190611375565b92505081905550610608565b84871480156104cb5750600285145b1561060757838385846104de9190611302565b6104e89190611333565b6104f29190611375565b6003828154811061050657610505611275565b5b90600052602060002090600502016004018190555060006003828154811061053157610530611275565b5b9060005260206000209060050201600301819055506003818154811061055a57610559611275565b5b906000526020600020906005020160040154600460006003848154811061058457610583611275565b5b906000526020600020906005020160010160009054906101000a900473ffffffffffffffffffffffffffffffffffffffff1673ffffffffffffffffffffffffffffffffffffffff1673ffffffffffffffffffffffffffffffffffffffff16815260200190815260200160002060008282546105ff9190611375565b925050819055505b5b8080610613906113a9565b915050610313565b5060006002888154811061063257610631611275565b5b906000526020600020906009020160080160006101000a81548160ff021916908315150217905550505050505b505050565b6000600460003373ffffffffffffffffffffffffffffffffffffffff1673ffffffffffffffffffffffffffffffffffffffff16815260200190815260200160002054905090565b600381815481106106bb57600080fd5b90600052602060002090600502016000915090508060000154908060010160009054906101000a900473ffffffffffffffffffffffffffffffffffffffff16908060020154908060030154908060040154905085565b60005481565b60003390506000600460003373ffffffffffffffffffffffffffffffffffffffff1673ffffffffffffffffffffffffffffffffffffffff168152602001908152602001600020541115610830578073ffffffffffffffffffffffffffffffffffffffff166108fc600460003373ffffffffffffffffffffffffffffffffffffffff1673ffffffffffffffffffffffffffffffffffffffff168152602001908152602001600020549081150290604051600060405180830381858888f193505050501580156107e9573d6000803e3d6000fd5b506000600460003373ffffffffffffffffffffffffffffffffffffffff1673ffffffffffffffffffffffffffffffffffffffff168152602001908152602001600020819055505b50565b60006040518061012001604052806000548152602001858152602001848152602001838152602001600015158152602001600081526020016000815260200160008152602001600115158152509050600080815480929190610894906113a9565b919050555060028190806001815401808255809150506001900390600052602060002090600902016000909190919091506000820151816000015560208201518160010190816108e491906115fd565b5060408201518160020190816108fa91906115fd565b50606082015181600301908161091091906115fd565b5060808201518160040160006101000a81548160ff02191690831515021790555060a0820151816005015560c0820151816006015560e082015181600701556101008201518160080160006101000a81548160ff021916908315150217905550505050505050565b60006002838154811061098e5761098d611275565b5b906000526020600020906009020160080160009054906101000a900460ff1690508080156109bc5750600034115b15610b4b5760006040518060a0016040528060015481526020013373ffffffffffffffffffffffffffffffffffffffff1681526020018481526020013481526020016000815250905060016000815480929190610a18906113a9565b919050555060038190806001815401808255809150506001900390600052602060002090600502016000909190919091506000820151816000015560208201518160010160006101000a81548173ffffffffffffffffffffffffffffffffffffffff021916908373ffffffffffffffffffffffffffffffffffffffff160217905550604082015181600201556060820151816003015560808201518160040155505060018303610b03573460028581548110610ad757610ad6611275565b5b90600052602060002090600902016006016000828254610af79190611375565b92505081905550610b49565b60028303610b48573460028581548110610b2057610b1f611275565b5b90600052602060002090600902016007016000828254610b409190611375565b925050819055505b5b505b505050565b60046020528060005260406000206000915090505481565b60028181548110610b7857600080fd5b9060005260206000209060090201600091509050806000015490806001018054610ba190611420565b80601f0160208091040260200160405190810160405280929190818152602001828054610bcd90611420565b8015610c1a5780601f10610bef57610100808354040283529160200191610c1a565b820191906000526020600020905b815481529060010190602001808311610bfd57829003601f168201915b505050505090806002018054610c2f90611420565b80601f0160208091040260200160405190810160405280929190818152602001828054610c5b90611420565b8015610ca85780601f10610c7d57610100808354040283529160200191610ca8565b820191906000526020600020905b815481529060010190602001808311610c8b57829003601f168201915b505050505090806003018054610cbd90611420565b80601f0160208091040260200160405190810160405280929190818152602001828054610ce990611420565b8015610d365780601f10610d0b57610100808354040283529160200191610d36565b820191906000526020600020905b815481529060010190602001808311610d1957829003601f168201915b5050505050908060040160009054906101000a900460ff16908060050154908060060154908060070154908060080160009054906101000a900460ff16905089565b60015481565b6000604051905090565b600080fd5b600080fd5b6000819050919050565b610da581610d92565b8114610db057600080fd5b50565b600081359050610dc281610d9c565b92915050565b60008060408385031215610ddf57610dde610d88565b5b6000610ded85828601610db3565b9250506020610dfe85828601610db3565b9150509250929050565b610e1181610d92565b82525050565b6000602082019050610e2c6000830184610e08565b92915050565b600060208284031215610e4857610e47610d88565b5b6000610e5684828501610db3565b91505092915050565b600073ffffffffffffffffffffffffffffffffffffffff82169050919050565b6000610e8a82610e5f565b9050919050565b610e9a81610e7f565b82525050565b600060a082019050610eb56000830188610e08565b610ec26020830187610e91565b610ecf6040830186610e08565b610edc6060830185610e08565b610ee96080830184610e08565b9695505050505050565b600080fd5b600080fd5b6000601f19601f8301169050919050565b7f4e487b7100000000000000000000000000000000000000000000000000000000600052604160045260246000fd5b610f4682610efd565b810181811067ffffffffffffffff82111715610f6557610f64610f0e565b5b80604052505050565b6000610f78610d7e565b9050610f848282610f3d565b919050565b600067ffffffffffffffff821115610fa457610fa3610f0e565b5b610fad82610efd565b9050602081019050919050565b82818337600083830152505050565b6000610fdc610fd784610f89565b610f6e565b905082815260208101848484011115610ff857610ff7610ef8565b5b611003848285610fba565b509392505050565b600082601f8301126110205761101f610ef3565b5b8135611030848260208601610fc9565b91505092915050565b60008060006060848603121561105257611051610d88565b5b600084013567ffffffffffffffff8111156110705761106f610d8d565b5b61107c8682870161100b565b935050602084013567ffffffffffffffff81111561109d5761109c610d8d565b5b6110a98682870161100b565b925050604084013567ffffffffffffffff8111156110ca576110c9610d8d565b5b6110d68682870161100b565b9150509250925092565b6110e981610e7f565b81146110f457600080fd5b50565b600081359050611106816110e0565b92915050565b60006020828403121561112257611121610d88565b5b6000611130848285016110f7565b91505092915050565b600081519050919050565b600082825260208201905092915050565b60005b83811015611173578082015181840152602081019050611158565b60008484015250505050565b600061118a82611139565b6111948185611144565b93506111a4818560208601611155565b6111ad81610efd565b840191505092915050565b60008115159050919050565b6111cd816111b8565b82525050565b6000610120820190506111e9600083018c610e08565b81810360208301526111fb818b61117f565b9050818103604083015261120f818a61117f565b90508181036060830152611223818961117f565b905061123260808301886111c4565b61123f60a0830187610e08565b61124c60c0830186610e08565b61125960e0830185610e08565b6112676101008301846111c4565b9a9950505050505050505050565b7f4e487b7100000000000000000000000000000000000000000000000000000000600052603260045260246000fd5b7f4e487b7100000000000000000000000000000000000000000000000000000000600052601260045260246000fd5b7f4e487b7100000000000000000000000000000000000000000000000000000000600052601160045260246000fd5b600061130d82610d92565b915061131883610d92565b925082611328576113276112a4565b5b828204905092915050565b600061133e82610d92565b915061134983610d92565b925082820261135781610d92565b9150828204841483151761136e5761136d6112d3565b5b5092915050565b600061138082610d92565b915061138b83610d92565b92508282019050808211156113a3576113a26112d3565b5b92915050565b60006113b482610d92565b91507fffffffffffffffffffffffffffffffffffffffffffffffffffffffffffffffff82036113e6576113e56112d3565b5b600182019050919050565b7f4e487b7100000000000000000000000000000000000000000000000000000000600052602260045260246000fd5b6000600282049050600182168061143857607f821691505b60208210810361144b5761144a6113f1565b5b50919050565b60008190508160005260206000209050919050565b60006020601f8301049050919050565b600082821b905092915050565b6000600883026114b37fffffffffffffffffffffffffffffffffffffffffffffffffffffffffffffffff82611476565b6114bd8683611476565b95508019841693508086168417925050509392505050565b6000819050919050565b60006114fa6114f56114f084610d92565b6114d5565b610d92565b9050919050565b6000819050919050565b611514836114df565b61152861152082611501565b848454611483565b825550505050565b600090565b61153d611530565b61154881848461150b565b505050565b5b8181101561156c57611561600082611535565b60018101905061154e565b5050565b601f8211156115b15761158281611451565b61158b84611466565b8101602085101561159a578190505b6115ae6115a685611466565b83018261154d565b50505b505050565b600082821c905092915050565b60006115d4600019846008026115b6565b1980831691505092915050565b60006115ed83836115c3565b9150826002028217905092915050565b61160682611139565b67ffffffffffffffff81111561161f5761161e610f0e565b5b6116298254611420565b611634828285611570565b600060209050601f8311600181146116675760008415611655578287015190505b61165f85826115e1565b8655506116c7565b601f19841661167586611451565b60005b8281101561169d57848901518255600182019150602085019450602081019050611678565b868310156116ba57848901516116b6601f8916826115c3565b8355505b6001600288020188555050505b50505050505056fea26469706673582212207028d55fead82a6abac0e754a0352f632e46aed32cba396c5dc12ec2603c243564736f6c63430008110033",
    "linkReferences": {},
    "deployedLinkReferences": {}
}