{
  "_format": "hh-sol-artifact-1",
  "contractName": "betApp",
  "sourceName": "contracts/betApp.sol",
  "abi": [
    {
      "inputs": [
        {
          "internalType": "string",
          "name": "side1",
          "type": "string"
        },
        {
          "internalType": "string",
          "name": "side2",
          "type": "string"
        },
        {
          "internalType": "string",
          "name": "sport",
          "type": "string"
        }
      ],
      "name": "addFixture",
      "outputs": [],
      "stateMutability": "nonpayable",
      "type": "function"
    },
    {
      "inputs": [],
      "name": "betCount",
      "outputs": [
        {
          "internalType": "uint256",
          "name": "",
          "type": "uint256"
        }
      ],
      "stateMutability": "view",
      "type": "function"
    },
    {
      "inputs": [
        {
          "internalType": "uint256",
          "name": "",
          "type": "uint256"
        }
      ],
      "name": "bets",
      "outputs": [
        {
          "internalType": "uint256",
          "name": "id",
          "type": "uint256"
        },
        {
          "internalType": "address",
          "name": "better",
          "type": "address"
        },
        {
          "internalType": "uint256",
          "name": "option",
          "type": "uint256"
        },
        {
          "internalType": "uint256",
          "name": "payment",
          "type": "uint256"
        },
        {
          "internalType": "uint256",
          "name": "balance",
          "type": "uint256"
        }
      ],
      "stateMutability": "view",
      "type": "function"
    },
    {
      "inputs": [
        {
          "internalType": "string",
          "name": "username",
          "type": "string"
        },
        {
          "internalType": "string",
          "name": "email",
          "type": "string"
        },
        {
          "internalType": "string",
          "name": "firstName",
          "type": "string"
        },
        {
          "internalType": "string",
          "name": "lastName",
          "type": "string"
        },
        {
          "internalType": "uint256",
          "name": "balance",
          "type": "uint256"
        }
      ],
      "name": "createUser",
      "outputs": [],
      "stateMutability": "nonpayable",
      "type": "function"
    },
    {
      "inputs": [
        {
          "internalType": "uint256",
          "name": "id",
          "type": "uint256"
        },
        {
          "internalType": "uint256",
          "name": "result",
          "type": "uint256"
        }
      ],
      "name": "endFixture",
      "outputs": [],
      "stateMutability": "nonpayable",
      "type": "function"
    },
    {
      "inputs": [],
      "name": "fixtureCount",
      "outputs": [
        {
          "internalType": "uint256",
          "name": "",
          "type": "uint256"
        }
      ],
      "stateMutability": "view",
      "type": "function"
    },
    {
      "inputs": [
        {
          "internalType": "uint256",
          "name": "",
          "type": "uint256"
        }
      ],
      "name": "fixtures",
      "outputs": [
        {
          "internalType": "uint256",
          "name": "id",
          "type": "uint256"
        },
        {
          "internalType": "string",
          "name": "side1",
          "type": "string"
        },
        {
          "internalType": "string",
          "name": "side2",
          "type": "string"
        },
        {
          "internalType": "string",
          "name": "sport",
          "type": "string"
        },
        {
          "internalType": "bool",
          "name": "results_announced",
          "type": "bool"
        },
        {
          "internalType": "uint256",
          "name": "result",
          "type": "uint256"
        },
        {
          "internalType": "uint256",
          "name": "side1pool",
          "type": "uint256"
        },
        {
          "internalType": "uint256",
          "name": "side2pool",
          "type": "uint256"
        },
        {
          "internalType": "bool",
          "name": "active",
          "type": "bool"
        }
      ],
      "stateMutability": "view",
      "type": "function"
    },
    {
      "inputs": [],
      "name": "getBalance",
      "outputs": [
        {
          "internalType": "uint256",
          "name": "",
          "type": "uint256"
        }
      ],
      "stateMutability": "view",
      "type": "function"
    },
    {
      "inputs": [],
      "name": "getUser",
      "outputs": [
        {
          "components": [
            {
              "internalType": "string",
              "name": "username",
              "type": "string"
            },
            {
              "internalType": "string",
              "name": "email",
              "type": "string"
            },
            {
              "internalType": "string",
              "name": "firstName",
              "type": "string"
            },
            {
              "internalType": "string",
              "name": "lastname",
              "type": "string"
            },
            {
              "internalType": "uint256",
              "name": "balance",
              "type": "uint256"
            }
          ],
          "internalType": "struct betApp.User",
          "name": "",
          "type": "tuple"
        }
      ],
      "stateMutability": "view",
      "type": "function"
    },
    {
      "inputs": [
        {
          "internalType": "uint256",
          "name": "id",
          "type": "uint256"
        },
        {
          "internalType": "uint256",
          "name": "option",
          "type": "uint256"
        },
        {
          "internalType": "uint256",
          "name": "betValue",
          "type": "uint256"
        }
      ],
      "name": "placeBet",
      "outputs": [],
      "stateMutability": "nonpayable",
      "type": "function"
    },
    {
      "inputs": [
        {
          "internalType": "address",
          "name": "",
          "type": "address"
        }
      ],
      "name": "users",
      "outputs": [
        {
          "internalType": "string",
          "name": "username",
          "type": "string"
        },
        {
          "internalType": "string",
          "name": "email",
          "type": "string"
        },
        {
          "internalType": "string",
          "name": "firstName",
          "type": "string"
        },
        {
          "internalType": "string",
          "name": "lastname",
          "type": "string"
        },
        {
          "internalType": "uint256",
          "name": "balance",
          "type": "uint256"
        }
      ],
      "stateMutability": "view",
      "type": "function"
    },
    {
      "inputs": [],
      "name": "withdraw",
      "outputs": [],
      "stateMutability": "payable",
      "type": "function"
    }
  ],
  "bytecode": "0x608060405260008055600060015534801561001957600080fd5b50612446806100296000396000f3fe6080604052600436106100a75760003560e01c80634d778448116100645780634d7784481461019f57806367bfef67146101c8578063832880e71461020d578063a87430ba14610238578063cf09449714610279578063e71c9697146102a4576100a7565b8063066a2336146100ac57806312065fe0146100d557806322af00fa1461010057806339b3e8fd146101415780633ccfd60b1461016c5780633f18eb3e14610176575b600080fd5b3480156100b857600080fd5b506100d360048036038101906100ce919061161d565b6102cd565b005b3480156100e157600080fd5b506100ea61066b565b6040516100f7919061166c565b60405180910390f35b34801561010c57600080fd5b5061012760048036038101906101229190611687565b6106b5565b6040516101389594939291906116f5565b60405180910390f35b34801561014d57600080fd5b5061015661071b565b604051610163919061166c565b60405180910390f35b610174610721565b005b34801561018257600080fd5b5061019d6004803603810190610198919061188e565b610846565b005b3480156101ab57600080fd5b506101c660048036038101906101c19190611935565b61098b565b005b3480156101d457600080fd5b506101ef60048036038101906101ea9190611687565b610a63565b60405161020499989796959493929190611aba565b60405180910390f35b34801561021957600080fd5b50610222610c73565b60405161022f9190611c40565b60405180910390f35b34801561024457600080fd5b5061025f600480360381019061025a9190611c8e565b610f1c565b604051610270959493929190611cbb565b60405180910390f35b34801561028557600080fd5b5061028e611172565b60405161029b919061166c565b60405180910390f35b3480156102b057600080fd5b506102cb60048036038101906102c69190611d2a565b611178565b005b6000600283815481106102e3576102e2611d7d565b5b906000526020600020906009020160080160009054906101000a900460ff16905060018210158015610316575060038211155b610355576040517f08c379a000000000000000000000000000000000000000000000000000000000815260040161034c90611df8565b60405180910390fd5b80156106665781600284815481106103705761036f611d7d565b5b90600052602060002090600902016005018190555060008060006002868154811061039e5761039d611d7d565b5b90600052602060002090600902016006015490506000600287815481106103c8576103c7611d7d565b5b906000526020600020906009020160070154905060018614806103eb5750600286145b156106055760005b600154811015610603576003818154811061041157610410611d7d565b5b90600052602060002090600502016002015494506003818154811061043957610438611d7d565b5b90600052602060002090600502016003015493508487036105f057600185036104ac578382858561046a9190611e76565b6104749190611ea7565b61047e9190611ee9565b6003828154811061049257610491611d7d565b5b906000526020600020906005020160040181905550610501565b6002850361050057838385846104c29190611e76565b6104cc9190611ea7565b6104d69190611ee9565b600382815481106104ea576104e9611d7d565b5b9060005260206000209060050201600401819055505b5b60006003828154811061051757610516611d7d565b5b906000526020600020906005020160030181905550600381815481106105405761053f611d7d565b5b906000526020600020906005020160040154600460006003848154811061056a57610569611d7d565b5b906000526020600020906005020160010160009054906101000a900473ffffffffffffffffffffffffffffffffffffffff1673ffffffffffffffffffffffffffffffffffffffff1673ffffffffffffffffffffffffffffffffffffffff16815260200190815260200160002060040160008282546105e89190611ee9565b925050819055505b80806105fb90611f1d565b9150506103f3565b505b60006002888154811061061b5761061a611d7d565b5b906000526020600020906009020160080160006101000a81548160ff02191690831515021790555060018614806106525750600286145b156106615761066087611388565b5b505050505b505050565b6000600460003373ffffffffffffffffffffffffffffffffffffffff1673ffffffffffffffffffffffffffffffffffffffff16815260200190815260200160002060040154905090565b600381815481106106c557600080fd5b90600052602060002090600502016000915090508060000154908060010160009054906101000a900473ffffffffffffffffffffffffffffffffffffffff16908060020154908060030154908060040154905085565b60005481565b60003390506000600460003373ffffffffffffffffffffffffffffffffffffffff1673ffffffffffffffffffffffffffffffffffffffff168152602001908152602001600020600401541115610843578073ffffffffffffffffffffffffffffffffffffffff166108fc600460003373ffffffffffffffffffffffffffffffffffffffff1673ffffffffffffffffffffffffffffffffffffffff168152602001908152602001600020600401549081150290604051600060405180830381858888f193505050501580156107f9573d6000803e3d6000fd5b506000600460003373ffffffffffffffffffffffffffffffffffffffff1673ffffffffffffffffffffffffffffffffffffffff168152602001908152602001600020600401819055505b50565b600060405180610120016040528060005481526020018581526020018481526020018381526020016000151581526020016000815260200160008152602001600081526020016001151581525090506000808154809291906108a790611f1d565b919050555060028190806001815401808255809150506001900390600052602060002090600902016000909190919091506000820151816000015560208201518160010190816108f79190612171565b50604082015181600201908161090d9190612171565b5060608201518160030190816109239190612171565b5060808201518160040160006101000a81548160ff02191690831515021790555060a0820151816005015560c0820151816006015560e082015181600701556101008201518160080160006101000a81548160ff021916908315150217905550505050505050565b60006040518060a0016040528087815260200186815260200185815260200184815260200183815250905080600460003373ffffffffffffffffffffffffffffffffffffffff1673ffffffffffffffffffffffffffffffffffffffff1681526020019081526020016000206000820151816000019081610a0b9190612171565b506020820151816001019081610a219190612171565b506040820151816002019081610a379190612171565b506060820151816003019081610a4d9190612171565b5060808201518160040155905050505050505050565b60028181548110610a7357600080fd5b9060005260206000209060090201600091509050806000015490806001018054610a9c90611f94565b80601f0160208091040260200160405190810160405280929190818152602001828054610ac890611f94565b8015610b155780601f10610aea57610100808354040283529160200191610b15565b820191906000526020600020905b815481529060010190602001808311610af857829003601f168201915b505050505090806002018054610b2a90611f94565b80601f0160208091040260200160405190810160405280929190818152602001828054610b5690611f94565b8015610ba35780601f10610b7857610100808354040283529160200191610ba3565b820191906000526020600020905b815481529060010190602001808311610b8657829003601f168201915b505050505090806003018054610bb890611f94565b80601f0160208091040260200160405190810160405280929190818152602001828054610be490611f94565b8015610c315780601f10610c0657610100808354040283529160200191610c31565b820191906000526020600020905b815481529060010190602001808311610c1457829003601f168201915b5050505050908060040160009054906101000a900460ff16908060050154908060060154908060070154908060080160009054906101000a900460ff16905089565b610c7b611547565b600460003373ffffffffffffffffffffffffffffffffffffffff1673ffffffffffffffffffffffffffffffffffffffff1681526020019081526020016000206040518060a0016040529081600082018054610cd590611f94565b80601f0160208091040260200160405190810160405280929190818152602001828054610d0190611f94565b8015610d4e5780601f10610d2357610100808354040283529160200191610d4e565b820191906000526020600020905b815481529060010190602001808311610d3157829003601f168201915b50505050508152602001600182018054610d6790611f94565b80601f0160208091040260200160405190810160405280929190818152602001828054610d9390611f94565b8015610de05780601f10610db557610100808354040283529160200191610de0565b820191906000526020600020905b815481529060010190602001808311610dc357829003601f168201915b50505050508152602001600282018054610df990611f94565b80601f0160208091040260200160405190810160405280929190818152602001828054610e2590611f94565b8015610e725780601f10610e4757610100808354040283529160200191610e72565b820191906000526020600020905b815481529060010190602001808311610e5557829003601f168201915b50505050508152602001600382018054610e8b90611f94565b80601f0160208091040260200160405190810160405280929190818152602001828054610eb790611f94565b8015610f045780601f10610ed957610100808354040283529160200191610f04565b820191906000526020600020905b815481529060010190602001808311610ee757829003601f168201915b50505050508152602001600482015481525050905090565b6004602052806000526040600020600091509050806000018054610f3f90611f94565b80601f0160208091040260200160405190810160405280929190818152602001828054610f6b90611f94565b8015610fb85780601f10610f8d57610100808354040283529160200191610fb8565b820191906000526020600020905b815481529060010190602001808311610f9b57829003601f168201915b505050505090806001018054610fcd90611f94565b80601f0160208091040260200160405190810160405280929190818152602001828054610ff990611f94565b80156110465780601f1061101b57610100808354040283529160200191611046565b820191906000526020600020905b81548152906001019060200180831161102957829003601f168201915b50505050509080600201805461105b90611f94565b80601f016020809104026020016040519081016040528092919081815260200182805461108790611f94565b80156110d45780601f106110a9576101008083540402835291602001916110d4565b820191906000526020600020905b8154815290600101906020018083116110b757829003601f168201915b5050505050908060030180546110e990611f94565b80601f016020809104026020016040519081016040528092919081815260200182805461111590611f94565b80156111625780601f1061113757610100808354040283529160200191611162565b820191906000526020600020905b81548152906001019060200180831161114557829003601f168201915b5050505050908060040154905085565b60015481565b60006002848154811061118e5761118d611d7d565b5b906000526020600020906009020160080160009054906101000a900460ff169050600082116111f2576040517f08c379a00000000000000000000000000000000000000000000000000000000081526004016111e99061228f565b60405180910390fd5b80156113825760006040518060a0016040528060015481526020013373ffffffffffffffffffffffffffffffffffffffff168152602001858152602001848152602001600081525090506001600081548092919061124f90611f1d565b919050555060038190806001815401808255809150506001900390600052602060002090600502016000909190919091506000820151816000015560208201518160010160006101000a81548173ffffffffffffffffffffffffffffffffffffffff021916908373ffffffffffffffffffffffffffffffffffffffff16021790555060408201518160020155606082015181600301556080820151816004015550506001840361133a57826002868154811061130e5761130d611d7d565b5b9060005260206000209060090201600601600082825461132e9190611ee9565b92505081905550611380565b6002840361137f57826002868154811061135757611356611d7d565b5b906000526020600020906009020160070160008282546113779190611ee9565b925050819055505b5b505b50505050565b6002600160028054905061139c91906122af565b815481106113ad576113ac611d7d565b5b9060005260206000209060090201600282815481106113cf576113ce611d7d565b5b906000526020600020906009020160008201548160000155600182018160010190816113fb91906122f9565b506002820181600201908161141091906122f9565b506003820181600301908161142591906122f9565b506004820160009054906101000a900460ff168160040160006101000a81548160ff0219169083151502179055506005820154816005015560068201548160060155600782015481600701556008820160009054906101000a900460ff168160080160006101000a81548160ff02191690831515021790555090505060028054806114b3576114b26123e1565b5b60019003818190600052602060002090600902016000808201600090556001820160006114e09190611576565b6002820160006114f09190611576565b6003820160006115009190611576565b6004820160006101000a81549060ff02191690556005820160009055600682016000905560078201600090556008820160006101000a81549060ff02191690555050905550565b6040518060a0016040528060608152602001606081526020016060815260200160608152602001600081525090565b50805461158290611f94565b6000825580601f1061159457506115b3565b601f0160209004906000526020600020908101906115b291906115b6565b5b50565b5b808211156115cf5760008160009055506001016115b7565b5090565b6000604051905090565b600080fd5b600080fd5b6000819050919050565b6115fa816115e7565b811461160557600080fd5b50565b600081359050611617816115f1565b92915050565b60008060408385031215611634576116336115dd565b5b600061164285828601611608565b925050602061165385828601611608565b9150509250929050565b611666816115e7565b82525050565b6000602082019050611681600083018461165d565b92915050565b60006020828403121561169d5761169c6115dd565b5b60006116ab84828501611608565b91505092915050565b600073ffffffffffffffffffffffffffffffffffffffff82169050919050565b60006116df826116b4565b9050919050565b6116ef816116d4565b82525050565b600060a08201905061170a600083018861165d565b61171760208301876116e6565b611724604083018661165d565b611731606083018561165d565b61173e608083018461165d565b9695505050505050565b600080fd5b600080fd5b6000601f19601f8301169050919050565b7f4e487b7100000000000000000000000000000000000000000000000000000000600052604160045260246000fd5b61179b82611752565b810181811067ffffffffffffffff821117156117ba576117b9611763565b5b80604052505050565b60006117cd6115d3565b90506117d98282611792565b919050565b600067ffffffffffffffff8211156117f9576117f8611763565b5b61180282611752565b9050602081019050919050565b82818337600083830152505050565b600061183161182c846117de565b6117c3565b90508281526020810184848401111561184d5761184c61174d565b5b61185884828561180f565b509392505050565b600082601f83011261187557611874611748565b5b813561188584826020860161181e565b91505092915050565b6000806000606084860312156118a7576118a66115dd565b5b600084013567ffffffffffffffff8111156118c5576118c46115e2565b5b6118d186828701611860565b935050602084013567ffffffffffffffff8111156118f2576118f16115e2565b5b6118fe86828701611860565b925050604084013567ffffffffffffffff81111561191f5761191e6115e2565b5b61192b86828701611860565b9150509250925092565b600080600080600060a08688031215611951576119506115dd565b5b600086013567ffffffffffffffff81111561196f5761196e6115e2565b5b61197b88828901611860565b955050602086013567ffffffffffffffff81111561199c5761199b6115e2565b5b6119a888828901611860565b945050604086013567ffffffffffffffff8111156119c9576119c86115e2565b5b6119d588828901611860565b935050606086013567ffffffffffffffff8111156119f6576119f56115e2565b5b611a0288828901611860565b9250506080611a1388828901611608565b9150509295509295909350565b600081519050919050565b600082825260208201905092915050565b60005b83811015611a5a578082015181840152602081019050611a3f565b60008484015250505050565b6000611a7182611a20565b611a7b8185611a2b565b9350611a8b818560208601611a3c565b611a9481611752565b840191505092915050565b60008115159050919050565b611ab481611a9f565b82525050565b600061012082019050611ad0600083018c61165d565b8181036020830152611ae2818b611a66565b90508181036040830152611af6818a611a66565b90508181036060830152611b0a8189611a66565b9050611b196080830188611aab565b611b2660a083018761165d565b611b3360c083018661165d565b611b4060e083018561165d565b611b4e610100830184611aab565b9a9950505050505050505050565b600082825260208201905092915050565b6000611b7882611a20565b611b828185611b5c565b9350611b92818560208601611a3c565b611b9b81611752565b840191505092915050565b611baf816115e7565b82525050565b600060a0830160008301518482036000860152611bd28282611b6d565b91505060208301518482036020860152611bec8282611b6d565b91505060408301518482036040860152611c068282611b6d565b91505060608301518482036060860152611c208282611b6d565b9150506080830151611c356080860182611ba6565b508091505092915050565b60006020820190508181036000830152611c5a8184611bb5565b905092915050565b611c6b816116d4565b8114611c7657600080fd5b50565b600081359050611c8881611c62565b92915050565b600060208284031215611ca457611ca36115dd565b5b6000611cb284828501611c79565b91505092915050565b600060a0820190508181036000830152611cd58188611a66565b90508181036020830152611ce98187611a66565b90508181036040830152611cfd8186611a66565b90508181036060830152611d118185611a66565b9050611d20608083018461165d565b9695505050505050565b600080600060608486031215611d4357611d426115dd565b5b6000611d5186828701611608565b9350506020611d6286828701611608565b9250506040611d7386828701611608565b9150509250925092565b7f4e487b7100000000000000000000000000000000000000000000000000000000600052603260045260246000fd5b7f496e76616c696420726573756c742076616c7565000000000000000000000000600082015250565b6000611de2601483611a2b565b9150611ded82611dac565b602082019050919050565b60006020820190508181036000830152611e1181611dd5565b9050919050565b7f4e487b7100000000000000000000000000000000000000000000000000000000600052601260045260246000fd5b7f4e487b7100000000000000000000000000000000000000000000000000000000600052601160045260246000fd5b6000611e81826115e7565b9150611e8c836115e7565b925082611e9c57611e9b611e18565b5b828204905092915050565b6000611eb2826115e7565b9150611ebd836115e7565b9250828202611ecb816115e7565b91508282048414831517611ee257611ee1611e47565b5b5092915050565b6000611ef4826115e7565b9150611eff836115e7565b9250828201905080821115611f1757611f16611e47565b5b92915050565b6000611f28826115e7565b91507fffffffffffffffffffffffffffffffffffffffffffffffffffffffffffffffff8203611f5a57611f59611e47565b5b600182019050919050565b7f4e487b7100000000000000000000000000000000000000000000000000000000600052602260045260246000fd5b60006002820490506001821680611fac57607f821691505b602082108103611fbf57611fbe611f65565b5b50919050565b60008190508160005260206000209050919050565b60006020601f8301049050919050565b600082821b905092915050565b6000600883026120277fffffffffffffffffffffffffffffffffffffffffffffffffffffffffffffffff82611fea565b6120318683611fea565b95508019841693508086168417925050509392505050565b6000819050919050565b600061206e612069612064846115e7565b612049565b6115e7565b9050919050565b6000819050919050565b61208883612053565b61209c61209482612075565b848454611ff7565b825550505050565b600090565b6120b16120a4565b6120bc81848461207f565b505050565b5b818110156120e0576120d56000826120a9565b6001810190506120c2565b5050565b601f821115612125576120f681611fc5565b6120ff84611fda565b8101602085101561210e578190505b61212261211a85611fda565b8301826120c1565b50505b505050565b600082821c905092915050565b60006121486000198460080261212a565b1980831691505092915050565b60006121618383612137565b9150826002028217905092915050565b61217a82611a20565b67ffffffffffffffff81111561219357612192611763565b5b61219d8254611f94565b6121a88282856120e4565b600060209050601f8311600181146121db57600084156121c9578287015190505b6121d38582612155565b86555061223b565b601f1984166121e986611fc5565b60005b82811015612211578489015182556001820191506020850194506020810190506121ec565b8683101561222e578489015161222a601f891682612137565b8355505b6001600288020188555050505b505050505050565b7f4265742076616c7565206d7573742062652067726561746572207468616e2030600082015250565b6000612279602083611a2b565b915061228482612243565b602082019050919050565b600060208201905081810360008301526122a88161226c565b9050919050565b60006122ba826115e7565b91506122c5836115e7565b92508282039050818111156122dd576122dc611e47565b5b92915050565b6000815490506122f281611f94565b9050919050565b8181036123075750506123df565b612310826122e3565b67ffffffffffffffff81111561232957612328611763565b5b6123338254611f94565b61233e8282856120e4565b6000601f83116001811461236d576000841561235b578287015490505b6123658582612155565b8655506123d8565b601f19841661237b87611fc5565b965061238686611fc5565b60005b828110156123ae57848901548255600182019150600185019450602081019050612389565b868310156123cb57848901546123c7601f891682612137565b8355505b6001600288020188555050505b5050505050505b565b7f4e487b7100000000000000000000000000000000000000000000000000000000600052603160045260246000fdfea2646970667358221220de1c9e31c9a192564f6d341ff39218589d2578a281d62ae5f8abcb9bef3cdb2e64736f6c63430008110033",
  "linkReferences": {},
  "deployedLinkReferences": {}
}